{
	"contracts/MaliciousContract.sol": {
		"MaliciousSeller": {
			"abi": [
				{
					"inputs": [],
					"stateMutability": "nonpayable",
					"type": "constructor"
				},
				{
					"inputs": [],
					"name": "auction",
					"outputs": [
						{
							"internalType": "contract EnglishAuction",
							"name": "",
							"type": "address"
						}
					],
					"stateMutability": "view",
					"type": "function"
				},
				{
					"inputs": [
						{
							"internalType": "address",
							"name": "_auction",
							"type": "address"
						}
					],
					"name": "setAuctionAddress",
					"outputs": [],
					"stateMutability": "nonpayable",
					"type": "function"
				},
				{
					"inputs": [],
					"name": "triggerEnd",
					"outputs": [],
					"stateMutability": "nonpayable",
					"type": "function"
				},
				{
					"stateMutability": "payable",
					"type": "receive"
				}
			],
			"devdoc": {
				"kind": "dev",
				"methods": {},
				"version": 1
			},
			"evm": {
				"assembly": "    /* \"contracts/MaliciousContract.sol\":90:794  contract MaliciousSeller {... */\n  mstore(0x40, 0x80)\n    /* \"contracts/MaliciousContract.sol\":215:236  constructor() {... */\n  callvalue\n  dup1\n  iszero\n  tag_1\n  jumpi\n  0x00\n  dup1\n  revert\ntag_1:\n  pop\n    /* \"contracts/MaliciousContract.sol\":90:794  contract MaliciousSeller {... */\n  dataSize(sub_0)\n  dup1\n  dataOffset(sub_0)\n  0x00\n  codecopy\n  0x00\n  return\nstop\n\nsub_0: assembly {\n        /* \"contracts/MaliciousContract.sol\":90:794  contract MaliciousSeller {... */\n      mstore(0x40, 0x80)\n      jumpi(tag_1, lt(calldatasize, 0x04))\n      shr(0xe0, calldataload(0x00))\n      dup1\n      0x16224d71\n      eq\n      tag_3\n      jumpi\n      dup1\n      0x7d9f6db5\n      eq\n      tag_4\n      jumpi\n      dup1\n      0x93ac3638\n      eq\n      tag_5\n      jumpi\n      jump(tag_2)\n    tag_1:\n      jumpi(tag_2, calldatasize)\n        /* \"contracts/MaliciousContract.sol\":702:709  auction */\n      0x00\n      dup1\n      sload\n      swap1\n      0x0100\n      exp\n      swap1\n      div\n      0xffffffffffffffffffffffffffffffffffffffff\n      and\n        /* \"contracts/MaliciousContract.sol\":702:715  auction.ended */\n      0xffffffffffffffffffffffffffffffffffffffff\n      and\n      0x12fa6feb\n        /* \"contracts/MaliciousContract.sol\":702:717  auction.ended() */\n      mload(0x40)\n      dup2\n      0xffffffff\n      and\n      0xe0\n      shl\n      dup2\n      mstore\n      0x04\n      add\n      0x20\n      mload(0x40)\n      dup1\n      dup4\n      sub\n      dup2\n      dup7\n      gas\n      staticcall\n      iszero\n      dup1\n      iszero\n      tag_9\n      jumpi\n      returndatasize\n      0x00\n      dup1\n      returndatacopy\n      revert(0x00, returndatasize)\n    tag_9:\n      pop\n      pop\n      pop\n      pop\n      mload(0x40)\n      returndatasize\n      not(0x1f)\n      0x1f\n      dup3\n      add\n      and\n      dup3\n      add\n      dup1\n      0x40\n      mstore\n      pop\n      dup2\n      add\n      swap1\n      tag_10\n      swap2\n      swap1\n      tag_11\n      jump\t// in\n    tag_10:\n        /* \"contracts/MaliciousContract.sol\":697:786  if (!auction.ended()) {... */\n      tag_12\n      jumpi\n        /* \"contracts/MaliciousContract.sol\":733:740  auction */\n      0x00\n      dup1\n      sload\n      swap1\n      0x0100\n      exp\n      swap1\n      div\n      0xffffffffffffffffffffffffffffffffffffffff\n      and\n        /* \"contracts/MaliciousContract.sol\":733:744  auction.end */\n      0xffffffffffffffffffffffffffffffffffffffff\n      and\n      0xefbe1c1c\n        /* \"contracts/MaliciousContract.sol\":733:746  auction.end() */\n      mload(0x40)\n      dup2\n      0xffffffff\n      and\n      0xe0\n      shl\n      dup2\n      mstore\n      0x04\n      add\n      0x00\n      mload(0x40)\n      dup1\n      dup4\n      sub\n      dup2\n      0x00\n      dup8\n      dup1\n      extcodesize\n      iszero\n      dup1\n      iszero\n      tag_13\n      jumpi\n      0x00\n      dup1\n      revert\n    tag_13:\n      pop\n      gas\n      call\n      iszero\n      dup1\n      iszero\n      tag_15\n      jumpi\n      returndatasize\n      0x00\n      dup1\n      returndatacopy\n      revert(0x00, returndatasize)\n    tag_15:\n      pop\n      pop\n      pop\n      pop\n        /* \"contracts/MaliciousContract.sol\":697:786  if (!auction.ended()) {... */\n    tag_12:\n        /* \"contracts/MaliciousContract.sol\":90:794  contract MaliciousSeller {... */\n      stop\n    tag_2:\n      0x00\n      dup1\n      revert\n        /* \"contracts/MaliciousContract.sol\":457:516  function triggerEnd() public {... */\n    tag_3:\n      callvalue\n      dup1\n      iszero\n      tag_16\n      jumpi\n      0x00\n      dup1\n      revert\n    tag_16:\n      pop\n      tag_17\n      tag_18\n      jump\t// in\n    tag_17:\n      stop\n        /* \"contracts/MaliciousContract.sol\":121:150  EnglishAuction public auction */\n    tag_4:\n      callvalue\n      dup1\n      iszero\n      tag_19\n      jumpi\n      0x00\n      dup1\n      revert\n    tag_19:\n      pop\n      tag_20\n      tag_21\n      jump\t// in\n    tag_20:\n      mload(0x40)\n      tag_22\n      swap2\n      swap1\n      tag_23\n      jump\t// in\n    tag_22:\n      mload(0x40)\n      dup1\n      swap2\n      sub\n      swap1\n      return\n        /* \"contracts/MaliciousContract.sol\":283:386  function setAuctionAddress(address _auction) public {... */\n    tag_5:\n      callvalue\n      dup1\n      iszero\n      tag_24\n      jumpi\n      0x00\n      dup1\n      revert\n    tag_24:\n      pop\n      tag_25\n      0x04\n      dup1\n      calldatasize\n      sub\n      dup2\n      add\n      swap1\n      tag_26\n      swap2\n      swap1\n      tag_27\n      jump\t// in\n    tag_26:\n      tag_28\n      jump\t// in\n    tag_25:\n      stop\n        /* \"contracts/MaliciousContract.sol\":457:516  function triggerEnd() public {... */\n    tag_18:\n        /* \"contracts/MaliciousContract.sol\":496:503  auction */\n      0x00\n      dup1\n      sload\n      swap1\n      0x0100\n      exp\n      swap1\n      div\n      0xffffffffffffffffffffffffffffffffffffffff\n      and\n        /* \"contracts/MaliciousContract.sol\":496:507  auction.end */\n      0xffffffffffffffffffffffffffffffffffffffff\n      and\n      0xefbe1c1c\n        /* \"contracts/MaliciousContract.sol\":496:509  auction.end() */\n      mload(0x40)\n      dup2\n      0xffffffff\n      and\n      0xe0\n      shl\n      dup2\n      mstore\n      0x04\n      add\n      0x00\n      mload(0x40)\n      dup1\n      dup4\n      sub\n      dup2\n      0x00\n      dup8\n      dup1\n      extcodesize\n      iszero\n      dup1\n      iszero\n      tag_30\n      jumpi\n      0x00\n      dup1\n      revert\n    tag_30:\n      pop\n      gas\n      call\n      iszero\n      dup1\n      iszero\n      tag_32\n      jumpi\n      returndatasize\n      0x00\n      dup1\n      returndatacopy\n      revert(0x00, returndatasize)\n    tag_32:\n      pop\n      pop\n      pop\n      pop\n        /* \"contracts/MaliciousContract.sol\":457:516  function triggerEnd() public {... */\n      jump\t// out\n        /* \"contracts/MaliciousContract.sol\":121:150  EnglishAuction public auction */\n    tag_21:\n      0x00\n      dup1\n      sload\n      swap1\n      0x0100\n      exp\n      swap1\n      div\n      0xffffffffffffffffffffffffffffffffffffffff\n      and\n      dup2\n      jump\t// out\n        /* \"contracts/MaliciousContract.sol\":283:386  function setAuctionAddress(address _auction) public {... */\n    tag_28:\n        /* \"contracts/MaliciousContract.sol\":370:378  _auction */\n      dup1\n        /* \"contracts/MaliciousContract.sol\":345:352  auction */\n      0x00\n      dup1\n        /* \"contracts/MaliciousContract.sol\":345:379  auction = EnglishAuction(_auction) */\n      0x0100\n      exp\n      dup2\n      sload\n      dup2\n      0xffffffffffffffffffffffffffffffffffffffff\n      mul\n      not\n      and\n      swap1\n      dup4\n      0xffffffffffffffffffffffffffffffffffffffff\n      and\n      mul\n      or\n      swap1\n      sstore\n      pop\n        /* \"contracts/MaliciousContract.sol\":283:386  function setAuctionAddress(address _auction) public {... */\n      pop\n      jump\t// out\n        /* \"#utility.yul\":88:205   */\n    tag_35:\n        /* \"#utility.yul\":197:198   */\n      0x00\n        /* \"#utility.yul\":194:195   */\n      dup1\n        /* \"#utility.yul\":187:199   */\n      revert\n        /* \"#utility.yul\":334:424   */\n    tag_37:\n        /* \"#utility.yul\":368:375   */\n      0x00\n        /* \"#utility.yul\":411:416   */\n      dup2\n        /* \"#utility.yul\":404:417   */\n      iszero\n        /* \"#utility.yul\":397:418   */\n      iszero\n        /* \"#utility.yul\":386:418   */\n      swap1\n      pop\n        /* \"#utility.yul\":334:424   */\n      swap2\n      swap1\n      pop\n      jump\t// out\n        /* \"#utility.yul\":430:546   */\n    tag_38:\n        /* \"#utility.yul\":500:521   */\n      tag_55\n        /* \"#utility.yul\":515:520   */\n      dup2\n        /* \"#utility.yul\":500:521   */\n      tag_37\n      jump\t// in\n    tag_55:\n        /* \"#utility.yul\":493:498   */\n      dup2\n        /* \"#utility.yul\":490:522   */\n      eq\n        /* \"#utility.yul\":480:540   */\n      tag_56\n      jumpi\n        /* \"#utility.yul\":536:537   */\n      0x00\n        /* \"#utility.yul\":533:534   */\n      dup1\n        /* \"#utility.yul\":526:538   */\n      revert\n        /* \"#utility.yul\":480:540   */\n    tag_56:\n        /* \"#utility.yul\":430:546   */\n      pop\n      jump\t// out\n        /* \"#utility.yul\":552:689   */\n    tag_39:\n        /* \"#utility.yul\":606:611   */\n      0x00\n        /* \"#utility.yul\":637:643   */\n      dup2\n        /* \"#utility.yul\":631:644   */\n      mload\n        /* \"#utility.yul\":622:644   */\n      swap1\n      pop\n        /* \"#utility.yul\":653:683   */\n      tag_58\n        /* \"#utility.yul\":677:682   */\n      dup2\n        /* \"#utility.yul\":653:683   */\n      tag_38\n      jump\t// in\n    tag_58:\n        /* \"#utility.yul\":552:689   */\n      swap3\n      swap2\n      pop\n      pop\n      jump\t// out\n        /* \"#utility.yul\":695:1040   */\n    tag_11:\n        /* \"#utility.yul\":762:768   */\n      0x00\n        /* \"#utility.yul\":811:813   */\n      0x20\n        /* \"#utility.yul\":799:808   */\n      dup3\n        /* \"#utility.yul\":790:797   */\n      dup5\n        /* \"#utility.yul\":786:809   */\n      sub\n        /* \"#utility.yul\":782:814   */\n      slt\n        /* \"#utility.yul\":779:898   */\n      iszero\n      tag_60\n      jumpi\n        /* \"#utility.yul\":817:896   */\n      tag_61\n      tag_35\n      jump\t// in\n    tag_61:\n        /* \"#utility.yul\":779:898   */\n    tag_60:\n        /* \"#utility.yul\":937:938   */\n      0x00\n        /* \"#utility.yul\":962:1023   */\n      tag_62\n        /* \"#utility.yul\":1015:1022   */\n      dup5\n        /* \"#utility.yul\":1006:1012   */\n      dup3\n        /* \"#utility.yul\":995:1004   */\n      dup6\n        /* \"#utility.yul\":991:1013   */\n      add\n        /* \"#utility.yul\":962:1023   */\n      tag_39\n      jump\t// in\n    tag_62:\n        /* \"#utility.yul\":952:1023   */\n      swap2\n      pop\n        /* \"#utility.yul\":908:1033   */\n      pop\n        /* \"#utility.yul\":695:1040   */\n      swap3\n      swap2\n      pop\n      pop\n      jump\t// out\n        /* \"#utility.yul\":1046:1172   */\n    tag_40:\n        /* \"#utility.yul\":1083:1090   */\n      0x00\n        /* \"#utility.yul\":1123:1165   */\n      0xffffffffffffffffffffffffffffffffffffffff\n        /* \"#utility.yul\":1116:1121   */\n      dup3\n        /* \"#utility.yul\":1112:1166   */\n      and\n        /* \"#utility.yul\":1101:1166   */\n      swap1\n      pop\n        /* \"#utility.yul\":1046:1172   */\n      swap2\n      swap1\n      pop\n      jump\t// out\n        /* \"#utility.yul\":1178:1238   */\n    tag_41:\n        /* \"#utility.yul\":1206:1209   */\n      0x00\n        /* \"#utility.yul\":1227:1232   */\n      dup2\n        /* \"#utility.yul\":1220:1232   */\n      swap1\n      pop\n        /* \"#utility.yul\":1178:1238   */\n      swap2\n      swap1\n      pop\n      jump\t// out\n        /* \"#utility.yul\":1244:1386   */\n    tag_42:\n        /* \"#utility.yul\":1294:1303   */\n      0x00\n        /* \"#utility.yul\":1327:1380   */\n      tag_66\n        /* \"#utility.yul\":1345:1379   */\n      tag_67\n        /* \"#utility.yul\":1354:1378   */\n      tag_68\n        /* \"#utility.yul\":1372:1377   */\n      dup5\n        /* \"#utility.yul\":1354:1378   */\n      tag_40\n      jump\t// in\n    tag_68:\n        /* \"#utility.yul\":1345:1379   */\n      tag_41\n      jump\t// in\n    tag_67:\n        /* \"#utility.yul\":1327:1380   */\n      tag_40\n      jump\t// in\n    tag_66:\n        /* \"#utility.yul\":1314:1380   */\n      swap1\n      pop\n        /* \"#utility.yul\":1244:1386   */\n      swap2\n      swap1\n      pop\n      jump\t// out\n        /* \"#utility.yul\":1392:1518   */\n    tag_43:\n        /* \"#utility.yul\":1442:1451   */\n      0x00\n        /* \"#utility.yul\":1475:1512   */\n      tag_70\n        /* \"#utility.yul\":1506:1511   */\n      dup3\n        /* \"#utility.yul\":1475:1512   */\n      tag_42\n      jump\t// in\n    tag_70:\n        /* \"#utility.yul\":1462:1512   */\n      swap1\n      pop\n        /* \"#utility.yul\":1392:1518   */\n      swap2\n      swap1\n      pop\n      jump\t// out\n        /* \"#utility.yul\":1524:1672   */\n    tag_44:\n        /* \"#utility.yul\":1596:1605   */\n      0x00\n        /* \"#utility.yul\":1629:1666   */\n      tag_72\n        /* \"#utility.yul\":1660:1665   */\n      dup3\n        /* \"#utility.yul\":1629:1666   */\n      tag_43\n      jump\t// in\n    tag_72:\n        /* \"#utility.yul\":1616:1666   */\n      swap1\n      pop\n        /* \"#utility.yul\":1524:1672   */\n      swap2\n      swap1\n      pop\n      jump\t// out\n        /* \"#utility.yul\":1678:1853   */\n    tag_45:\n        /* \"#utility.yul\":1787:1846   */\n      tag_74\n        /* \"#utility.yul\":1840:1845   */\n      dup2\n        /* \"#utility.yul\":1787:1846   */\n      tag_44\n      jump\t// in\n    tag_74:\n        /* \"#utility.yul\":1782:1785   */\n      dup3\n        /* \"#utility.yul\":1775:1847   */\n      mstore\n        /* \"#utility.yul\":1678:1853   */\n      pop\n      pop\n      jump\t// out\n        /* \"#utility.yul\":1859:2125   */\n    tag_23:\n        /* \"#utility.yul\":1974:1978   */\n      0x00\n        /* \"#utility.yul\":2012:2014   */\n      0x20\n        /* \"#utility.yul\":2001:2010   */\n      dup3\n        /* \"#utility.yul\":1997:2015   */\n      add\n        /* \"#utility.yul\":1989:2015   */\n      swap1\n      pop\n        /* \"#utility.yul\":2025:2118   */\n      tag_76\n        /* \"#utility.yul\":2115:2116   */\n      0x00\n        /* \"#utility.yul\":2104:2113   */\n      dup4\n        /* \"#utility.yul\":2100:2117   */\n      add\n        /* \"#utility.yul\":2091:2097   */\n      dup5\n        /* \"#utility.yul\":2025:2118   */\n      tag_45\n      jump\t// in\n    tag_76:\n        /* \"#utility.yul\":1859:2125   */\n      swap3\n      swap2\n      pop\n      pop\n      jump\t// out\n        /* \"#utility.yul\":2131:2227   */\n    tag_46:\n        /* \"#utility.yul\":2168:2175   */\n      0x00\n        /* \"#utility.yul\":2197:2221   */\n      tag_78\n        /* \"#utility.yul\":2215:2220   */\n      dup3\n        /* \"#utility.yul\":2197:2221   */\n      tag_40\n      jump\t// in\n    tag_78:\n        /* \"#utility.yul\":2186:2221   */\n      swap1\n      pop\n        /* \"#utility.yul\":2131:2227   */\n      swap2\n      swap1\n      pop\n      jump\t// out\n        /* \"#utility.yul\":2233:2355   */\n    tag_47:\n        /* \"#utility.yul\":2306:2330   */\n      tag_80\n        /* \"#utility.yul\":2324:2329   */\n      dup2\n        /* \"#utility.yul\":2306:2330   */\n      tag_46\n      jump\t// in\n    tag_80:\n        /* \"#utility.yul\":2299:2304   */\n      dup2\n        /* \"#utility.yul\":2296:2331   */\n      eq\n        /* \"#utility.yul\":2286:2349   */\n      tag_81\n      jumpi\n        /* \"#utility.yul\":2345:2346   */\n      0x00\n        /* \"#utility.yul\":2342:2343   */\n      dup1\n        /* \"#utility.yul\":2335:2347   */\n      revert\n        /* \"#utility.yul\":2286:2349   */\n    tag_81:\n        /* \"#utility.yul\":2233:2355   */\n      pop\n      jump\t// out\n        /* \"#utility.yul\":2361:2500   */\n    tag_48:\n        /* \"#utility.yul\":2407:2412   */\n      0x00\n        /* \"#utility.yul\":2445:2451   */\n      dup2\n        /* \"#utility.yul\":2432:2452   */\n      calldataload\n        /* \"#utility.yul\":2423:2452   */\n      swap1\n      pop\n        /* \"#utility.yul\":2461:2494   */\n      tag_83\n        /* \"#utility.yul\":2488:2493   */\n      dup2\n        /* \"#utility.yul\":2461:2494   */\n      tag_47\n      jump\t// in\n    tag_83:\n        /* \"#utility.yul\":2361:2500   */\n      swap3\n      swap2\n      pop\n      pop\n      jump\t// out\n        /* \"#utility.yul\":2506:2835   */\n    tag_27:\n        /* \"#utility.yul\":2565:2571   */\n      0x00\n        /* \"#utility.yul\":2614:2616   */\n      0x20\n        /* \"#utility.yul\":2602:2611   */\n      dup3\n        /* \"#utility.yul\":2593:2600   */\n      dup5\n        /* \"#utility.yul\":2589:2612   */\n      sub\n        /* \"#utility.yul\":2585:2617   */\n      slt\n        /* \"#utility.yul\":2582:2701   */\n      iszero\n      tag_85\n      jumpi\n        /* \"#utility.yul\":2620:2699   */\n      tag_86\n      tag_35\n      jump\t// in\n    tag_86:\n        /* \"#utility.yul\":2582:2701   */\n    tag_85:\n        /* \"#utility.yul\":2740:2741   */\n      0x00\n        /* \"#utility.yul\":2765:2818   */\n      tag_87\n        /* \"#utility.yul\":2810:2817   */\n      dup5\n        /* \"#utility.yul\":2801:2807   */\n      dup3\n        /* \"#utility.yul\":2790:2799   */\n      dup6\n        /* \"#utility.yul\":2786:2808   */\n      add\n        /* \"#utility.yul\":2765:2818   */\n      tag_48\n      jump\t// in\n    tag_87:\n        /* \"#utility.yul\":2755:2818   */\n      swap2\n      pop\n        /* \"#utility.yul\":2711:2828   */\n      pop\n        /* \"#utility.yul\":2506:2835   */\n      swap3\n      swap2\n      pop\n      pop\n      jump\t// out\n\n    auxdata: 0xa264697066735822122002e9f1c160b2963297456b174759b31c55c2b162a22f29ec0a642bc235a7ce1964736f6c63430008190033\n}\n",
				"bytecode": {
					"linkReferences": {},
					"object": "6080604052348015600e575f80fd5b506104298061001c5f395ff3fe608060405260043610610037575f3560e01c806316224d711461014d5780637d9f6db51461016357806393ac36381461018d57610149565b36610149575f8054906101000a900473ffffffffffffffffffffffffffffffffffffffff1673ffffffffffffffffffffffffffffffffffffffff166312fa6feb6040518163ffffffff1660e01b8152600401602060405180830381865afa1580156100a4573d5f803e3d5ffd5b505050506040513d601f19601f820116820180604052508101906100c891906102cf565b610147575f8054906101000a900473ffffffffffffffffffffffffffffffffffffffff1673ffffffffffffffffffffffffffffffffffffffff1663efbe1c1c6040518163ffffffff1660e01b81526004015f604051808303815f87803b158015610130575f80fd5b505af1158015610142573d5f803e3d5ffd5b505050505b005b5f80fd5b348015610158575f80fd5b506101616101b5565b005b34801561016e575f80fd5b50610177610231565b6040516101849190610374565b60405180910390f35b348015610198575f80fd5b506101b360048036038101906101ae91906103c8565b610254565b005b5f8054906101000a900473ffffffffffffffffffffffffffffffffffffffff1673ffffffffffffffffffffffffffffffffffffffff1663efbe1c1c6040518163ffffffff1660e01b81526004015f604051808303815f87803b158015610219575f80fd5b505af115801561022b573d5f803e3d5ffd5b50505050565b5f8054906101000a900473ffffffffffffffffffffffffffffffffffffffff1681565b805f806101000a81548173ffffffffffffffffffffffffffffffffffffffff021916908373ffffffffffffffffffffffffffffffffffffffff16021790555050565b5f80fd5b5f8115159050919050565b6102ae8161029a565b81146102b8575f80fd5b50565b5f815190506102c9816102a5565b92915050565b5f602082840312156102e4576102e3610296565b5b5f6102f1848285016102bb565b91505092915050565b5f73ffffffffffffffffffffffffffffffffffffffff82169050919050565b5f819050919050565b5f61033c610337610332846102fa565b610319565b6102fa565b9050919050565b5f61034d82610322565b9050919050565b5f61035e82610343565b9050919050565b61036e81610354565b82525050565b5f6020820190506103875f830184610365565b92915050565b5f610397826102fa565b9050919050565b6103a78161038d565b81146103b1575f80fd5b50565b5f813590506103c28161039e565b92915050565b5f602082840312156103dd576103dc610296565b5b5f6103ea848285016103b4565b9150509291505056fea264697066735822122002e9f1c160b2963297456b174759b31c55c2b162a22f29ec0a642bc235a7ce1964736f6c63430008190033",
					"opcodes": "PUSH1 0x80 PUSH1 0x40 MSTORE CALLVALUE DUP1 ISZERO PUSH1 0xE JUMPI PUSH0 DUP1 REVERT JUMPDEST POP PUSH2 0x429 DUP1 PUSH2 0x1C PUSH0 CODECOPY PUSH0 RETURN INVALID PUSH1 0x80 PUSH1 0x40 MSTORE PUSH1 0x4 CALLDATASIZE LT PUSH2 0x37 JUMPI PUSH0 CALLDATALOAD PUSH1 0xE0 SHR DUP1 PUSH4 0x16224D71 EQ PUSH2 0x14D JUMPI DUP1 PUSH4 0x7D9F6DB5 EQ PUSH2 0x163 JUMPI DUP1 PUSH4 0x93AC3638 EQ PUSH2 0x18D JUMPI PUSH2 0x149 JUMP JUMPDEST CALLDATASIZE PUSH2 0x149 JUMPI PUSH0 DUP1 SLOAD SWAP1 PUSH2 0x100 EXP SWAP1 DIV PUSH20 0xFFFFFFFFFFFFFFFFFFFFFFFFFFFFFFFFFFFFFFFF AND PUSH20 0xFFFFFFFFFFFFFFFFFFFFFFFFFFFFFFFFFFFFFFFF AND PUSH4 0x12FA6FEB PUSH1 0x40 MLOAD DUP2 PUSH4 0xFFFFFFFF AND PUSH1 0xE0 SHL DUP2 MSTORE PUSH1 0x4 ADD PUSH1 0x20 PUSH1 0x40 MLOAD DUP1 DUP4 SUB DUP2 DUP7 GAS STATICCALL ISZERO DUP1 ISZERO PUSH2 0xA4 JUMPI RETURNDATASIZE PUSH0 DUP1 RETURNDATACOPY RETURNDATASIZE PUSH0 REVERT JUMPDEST POP POP POP POP PUSH1 0x40 MLOAD RETURNDATASIZE PUSH1 0x1F NOT PUSH1 0x1F DUP3 ADD AND DUP3 ADD DUP1 PUSH1 0x40 MSTORE POP DUP2 ADD SWAP1 PUSH2 0xC8 SWAP2 SWAP1 PUSH2 0x2CF JUMP JUMPDEST PUSH2 0x147 JUMPI PUSH0 DUP1 SLOAD SWAP1 PUSH2 0x100 EXP SWAP1 DIV PUSH20 0xFFFFFFFFFFFFFFFFFFFFFFFFFFFFFFFFFFFFFFFF AND PUSH20 0xFFFFFFFFFFFFFFFFFFFFFFFFFFFFFFFFFFFFFFFF AND PUSH4 0xEFBE1C1C PUSH1 0x40 MLOAD DUP2 PUSH4 0xFFFFFFFF AND PUSH1 0xE0 SHL DUP2 MSTORE PUSH1 0x4 ADD PUSH0 PUSH1 0x40 MLOAD DUP1 DUP4 SUB DUP2 PUSH0 DUP8 DUP1 EXTCODESIZE ISZERO DUP1 ISZERO PUSH2 0x130 JUMPI PUSH0 DUP1 REVERT JUMPDEST POP GAS CALL ISZERO DUP1 ISZERO PUSH2 0x142 JUMPI RETURNDATASIZE PUSH0 DUP1 RETURNDATACOPY RETURNDATASIZE PUSH0 REVERT JUMPDEST POP POP POP POP JUMPDEST STOP JUMPDEST PUSH0 DUP1 REVERT JUMPDEST CALLVALUE DUP1 ISZERO PUSH2 0x158 JUMPI PUSH0 DUP1 REVERT JUMPDEST POP PUSH2 0x161 PUSH2 0x1B5 JUMP JUMPDEST STOP JUMPDEST CALLVALUE DUP1 ISZERO PUSH2 0x16E JUMPI PUSH0 DUP1 REVERT JUMPDEST POP PUSH2 0x177 PUSH2 0x231 JUMP JUMPDEST PUSH1 0x40 MLOAD PUSH2 0x184 SWAP2 SWAP1 PUSH2 0x374 JUMP JUMPDEST PUSH1 0x40 MLOAD DUP1 SWAP2 SUB SWAP1 RETURN JUMPDEST CALLVALUE DUP1 ISZERO PUSH2 0x198 JUMPI PUSH0 DUP1 REVERT JUMPDEST POP PUSH2 0x1B3 PUSH1 0x4 DUP1 CALLDATASIZE SUB DUP2 ADD SWAP1 PUSH2 0x1AE SWAP2 SWAP1 PUSH2 0x3C8 JUMP JUMPDEST PUSH2 0x254 JUMP JUMPDEST STOP JUMPDEST PUSH0 DUP1 SLOAD SWAP1 PUSH2 0x100 EXP SWAP1 DIV PUSH20 0xFFFFFFFFFFFFFFFFFFFFFFFFFFFFFFFFFFFFFFFF AND PUSH20 0xFFFFFFFFFFFFFFFFFFFFFFFFFFFFFFFFFFFFFFFF AND PUSH4 0xEFBE1C1C PUSH1 0x40 MLOAD DUP2 PUSH4 0xFFFFFFFF AND PUSH1 0xE0 SHL DUP2 MSTORE PUSH1 0x4 ADD PUSH0 PUSH1 0x40 MLOAD DUP1 DUP4 SUB DUP2 PUSH0 DUP8 DUP1 EXTCODESIZE ISZERO DUP1 ISZERO PUSH2 0x219 JUMPI PUSH0 DUP1 REVERT JUMPDEST POP GAS CALL ISZERO DUP1 ISZERO PUSH2 0x22B JUMPI RETURNDATASIZE PUSH0 DUP1 RETURNDATACOPY RETURNDATASIZE PUSH0 REVERT JUMPDEST POP POP POP POP JUMP JUMPDEST PUSH0 DUP1 SLOAD SWAP1 PUSH2 0x100 EXP SWAP1 DIV PUSH20 0xFFFFFFFFFFFFFFFFFFFFFFFFFFFFFFFFFFFFFFFF AND DUP2 JUMP JUMPDEST DUP1 PUSH0 DUP1 PUSH2 0x100 EXP DUP2 SLOAD DUP2 PUSH20 0xFFFFFFFFFFFFFFFFFFFFFFFFFFFFFFFFFFFFFFFF MUL NOT AND SWAP1 DUP4 PUSH20 0xFFFFFFFFFFFFFFFFFFFFFFFFFFFFFFFFFFFFFFFF AND MUL OR SWAP1 SSTORE POP POP JUMP JUMPDEST PUSH0 DUP1 REVERT JUMPDEST PUSH0 DUP2 ISZERO ISZERO SWAP1 POP SWAP2 SWAP1 POP JUMP JUMPDEST PUSH2 0x2AE DUP2 PUSH2 0x29A JUMP JUMPDEST DUP2 EQ PUSH2 0x2B8 JUMPI PUSH0 DUP1 REVERT JUMPDEST POP JUMP JUMPDEST PUSH0 DUP2 MLOAD SWAP1 POP PUSH2 0x2C9 DUP2 PUSH2 0x2A5 JUMP JUMPDEST SWAP3 SWAP2 POP POP JUMP JUMPDEST PUSH0 PUSH1 0x20 DUP3 DUP5 SUB SLT ISZERO PUSH2 0x2E4 JUMPI PUSH2 0x2E3 PUSH2 0x296 JUMP JUMPDEST JUMPDEST PUSH0 PUSH2 0x2F1 DUP5 DUP3 DUP6 ADD PUSH2 0x2BB JUMP JUMPDEST SWAP2 POP POP SWAP3 SWAP2 POP POP JUMP JUMPDEST PUSH0 PUSH20 0xFFFFFFFFFFFFFFFFFFFFFFFFFFFFFFFFFFFFFFFF DUP3 AND SWAP1 POP SWAP2 SWAP1 POP JUMP JUMPDEST PUSH0 DUP2 SWAP1 POP SWAP2 SWAP1 POP JUMP JUMPDEST PUSH0 PUSH2 0x33C PUSH2 0x337 PUSH2 0x332 DUP5 PUSH2 0x2FA JUMP JUMPDEST PUSH2 0x319 JUMP JUMPDEST PUSH2 0x2FA JUMP JUMPDEST SWAP1 POP SWAP2 SWAP1 POP JUMP JUMPDEST PUSH0 PUSH2 0x34D DUP3 PUSH2 0x322 JUMP JUMPDEST SWAP1 POP SWAP2 SWAP1 POP JUMP JUMPDEST PUSH0 PUSH2 0x35E DUP3 PUSH2 0x343 JUMP JUMPDEST SWAP1 POP SWAP2 SWAP1 POP JUMP JUMPDEST PUSH2 0x36E DUP2 PUSH2 0x354 JUMP JUMPDEST DUP3 MSTORE POP POP JUMP JUMPDEST PUSH0 PUSH1 0x20 DUP3 ADD SWAP1 POP PUSH2 0x387 PUSH0 DUP4 ADD DUP5 PUSH2 0x365 JUMP JUMPDEST SWAP3 SWAP2 POP POP JUMP JUMPDEST PUSH0 PUSH2 0x397 DUP3 PUSH2 0x2FA JUMP JUMPDEST SWAP1 POP SWAP2 SWAP1 POP JUMP JUMPDEST PUSH2 0x3A7 DUP2 PUSH2 0x38D JUMP JUMPDEST DUP2 EQ PUSH2 0x3B1 JUMPI PUSH0 DUP1 REVERT JUMPDEST POP JUMP JUMPDEST PUSH0 DUP2 CALLDATALOAD SWAP1 POP PUSH2 0x3C2 DUP2 PUSH2 0x39E JUMP JUMPDEST SWAP3 SWAP2 POP POP JUMP JUMPDEST PUSH0 PUSH1 0x20 DUP3 DUP5 SUB SLT ISZERO PUSH2 0x3DD JUMPI PUSH2 0x3DC PUSH2 0x296 JUMP JUMPDEST JUMPDEST PUSH0 PUSH2 0x3EA DUP5 DUP3 DUP6 ADD PUSH2 0x3B4 JUMP JUMPDEST SWAP2 POP POP SWAP3 SWAP2 POP POP JUMP INVALID LOG2 PUSH5 0x6970667358 0x22 SLT KECCAK256 MUL 0xE9 CALL 0xC1 PUSH1 0xB2 SWAP7 ORIGIN SWAP8 GASLIMIT PUSH12 0x174759B31C55C2B162A22F29 0xEC EXP PUSH5 0x2BC235A7CE NOT PUSH5 0x736F6C6343 STOP ADDMOD NOT STOP CALLER "
				},
				"gasEstimates": {
					"creation": {
						"codeDepositCost": "213000",
						"executionCost": "255",
						"totalCost": "213255"
					},
					"external": {
						"auction()": "infinite",
						"setAuctionAddress(address)": "24737",
						"triggerEnd()": "infinite"
					}
				},
				"methodIdentifiers": {
					"auction()": "7d9f6db5",
					"setAuctionAddress(address)": "93ac3638",
					"triggerEnd()": "16224d71"
				}
			},
			"storageLayout": {
				"storage": [
					{
						"astId": 302,
						"contract": "contracts/MaliciousContract.sol:MaliciousSeller",
						"label": "auction",
						"offset": 0,
						"slot": "0",
						"type": "t_contract(EnglishAuction)296"
					}
				],
				"types": {
					"t_contract(EnglishAuction)296": {
						"encoding": "inplace",
						"label": "contract EnglishAuction",
						"numberOfBytes": "20"
					}
				}
			},
			"userdoc": {
				"kind": "user",
				"methods": {},
				"version": 1
			}
		}
	}
}